{
  "_format": "hh-sol-artifact-1",
  "contractName": "SaltedUniversalProfileFactory",
  "sourceName": "contracts/SaltedUniversalProfileFactory.sol",
  "abi": [
    {
      "inputs": [
        {
          "internalType": "address",
          "name": "caller",
          "type": "address"
        },
        {
          "internalType": "address",
          "name": "universalProfile",
          "type": "address"
        }
      ],
      "name": "CallerNotUniversalProfileOwner",
      "type": "error"
    },
    {
      "anonymous": false,
      "inputs": [
        {
          "indexed": true,
          "internalType": "address",
          "name": "deployer",
          "type": "address"
        },
        {
          "indexed": true,
          "internalType": "address",
          "name": "universalProfileAddress",
          "type": "address"
        }
      ],
      "name": "SaltedUniversalProfileDeployed",
      "type": "event"
    },
    {
      "anonymous": false,
      "inputs": [
        {
          "indexed": true,
          "internalType": "address",
          "name": "deployer",
          "type": "address"
        },
        {
          "indexed": true,
          "internalType": "address",
          "name": "universalProfileAddress",
          "type": "address"
        }
      ],
      "name": "SaltedUniversalProfileExported",
      "type": "event"
    },
    {
      "inputs": [
        {
          "internalType": "address",
          "name": "universalProfileAddress",
          "type": "address"
        },
        {
          "internalType": "address",
          "name": "newMainController",
          "type": "address"
        },
        {
          "internalType": "bytes",
          "name": "LSP3ProfileMetadata",
          "type": "bytes"
        }
      ],
      "name": "changeMainController",
      "outputs": [],
      "stateMutability": "nonpayable",
      "type": "function"
    },
    {
      "inputs": [
        {
          "internalType": "bytes32",
          "name": "salt",
          "type": "bytes32"
        }
      ],
      "name": "deploy",
      "outputs": [
        {
          "internalType": "address",
          "name": "universalProfileAddress",
          "type": "address"
        }
      ],
      "stateMutability": "payable",
      "type": "function"
    },
    {
      "inputs": [
        {
          "internalType": "address",
          "name": "universalProfileAddress",
          "type": "address"
        }
      ],
      "name": "getDeployedUniversalProfiles",
      "outputs": [
        {
          "internalType": "address[]",
          "name": "owner",
          "type": "address[]"
        }
      ],
      "stateMutability": "view",
      "type": "function"
    },
    {
      "inputs": [
        {
          "internalType": "address",
          "name": "universalProfileAddress",
          "type": "address"
        }
      ],
      "name": "getExportedUniversalProfiles",
      "outputs": [
        {
          "internalType": "address[]",
          "name": "owner",
          "type": "address[]"
        }
      ],
      "stateMutability": "view",
      "type": "function"
    },
    {
      "inputs": [
        {
          "internalType": "address",
          "name": "universalProfileAddress",
          "type": "address"
        }
      ],
      "name": "getUniversalProfilesOwner",
      "outputs": [
        {
          "internalType": "address",
          "name": "owner",
          "type": "address"
        }
      ],
      "stateMutability": "view",
      "type": "function"
    }
  ],
  "bytecode": "0x608060405234801561001057600080fd5b50611037806100206000396000f3fe60806040526004361061004a5760003560e01c80632b85ba381461004f578063950de73b1461007f578063a6871811146100b8578063b23378a1146100da578063c91c705114610107575b600080fd5b61006261005d366004610be3565b610127565b6040516001600160a01b0390911681526020015b60405180910390f35b34801561008b57600080fd5b5061006261009a366004610c14565b6001600160a01b039081166000908152602081905260409020541690565b3480156100c457600080fd5b506100d86100d3366004610c4e565b61073d565b005b3480156100e657600080fd5b506100fa6100f5366004610c14565b610a6b565b6040516100769190610d24565b34801561011357600080fd5b506100fa610122366004610c14565b610ae1565b6040805160808082018352838252600060208084018290527352c90985af970d4e0dc26cb5d052505278af32a98486015284516e66093407b6704b89793beffd0d8f006024808301919091528651808303820181526044909201875281830180516001600160e01b031663189acdbd60e31b908117909152606080880193909352875160a08101895285815273a75684d7d048704a2db851d05ba0c3cbe226264c81860152885180860192909252885180830360040181529190920188528188015260019181019190915285518083018752838152938101939093528451600780825261010082019096529194339493928692909190820160e0803683370190505090507f0cfc51aec37c55a4d0b1a65c6255c4bf2fbdf6277f3cc0730c45b828b6db8b4760001b8160008151811061026257610262610d71565b6020026020010181815250507feafec4d89fa9619884b600005ef83ad9559033e6e941db7d7c495acdce61634760001b816001815181106102a5576102a5610d71565b602002602001018181525050600080516020610fe283398151915260001b816002815181106102d6576102d6610d71565b60209081029190910101526102fa600080516020610fe28339815191526000610b55565b8160038151811061030d5761030d610d71565b6020908102919091010152610332694b80742de2bf82acb36360b01b3060601b610ba8565b8160048151811061034557610345610d71565b6020908102919091010152610369600080516020610fe28339815191526001610b55565b8160058151811061037c5761037c610d71565b60209081029190910101526103b5694b80742de2bf82acb36360b01b7314a8cfbfce0337e58f8bef4e0ee2373a995a231960631b610ba8565b816006815181106103c8576103c8610d71565b60209081029190910101526040805160078082526101008201909252600091816020015b60608152602001906001900390816103ec57905050905073a5467dfe7019bf2c7c5f7a707711b9d4cad118c86040516020016104289190610d87565b6040516020818303038152906040528160008151811061044a5761044a610d71565b6020026020010181905250604051806040016040528060048152602001635ef83ad960e01b8152506040516020016104829190610dc8565b604051602081830303815290604052816001815181106104a4576104a4610d71565b602090810291909101810191909152604051600160811b91810191909152603001604051602081830303815290604052816002815181106104e7576104e7610d71565b6020026020010181905250306040516020016105039190610d87565b6040516020818303038152906040528160038151811061052557610525610d71565b6020026020010181905250627f3f7f60001b60405160200161054991815260200190565b6040516020818303038152906040528160048151811061056b5761056b610d71565b602002602001018190525073a5467dfe7019bf2c7c5f7a707711b9d4cad118c860405160200161059b9190610d87565b604051602081830303815290604052816005815181106105bd576105bd610d71565b602002602001018190525060405180604001604052806020815260200162060080815250816006815181106105f4576105f4610d71565b602002602001018190525060008282604051602001610614929190610e10565b60408051601f1981840301815290829052636a66a75360e01b82529150732300000a84d25df63081feaa37ba6b62c4c89a3090636a66a7539061067090889088906e66093407b6704b89793beffd0d8f00908790600401610ea8565b60408051808303816000875af115801561068e573d6000803e3d6000fd5b505050506040513d601f19601f820116820180604052508101906106b29190610f80565b506001600160a01b038082166000818152602081815260408083208054958d166001600160a01b031996871681179091558084526001808452828520805491820181558552928420909201805490951684179094559251939a5090927fcf50ad7b616dd417b86429d1238294c7125c52183b692d38a4672f3f37fde2be9190a3505050505050919050565b6001600160a01b03838116600090815260208190526040902054849116331461078e5760405163d5fcdb6960e01b81523360048201526001600160a01b038216602482015260440160405180910390fd5b60408051600480825260a08201909252600091602082016080803683370190505090507f5ef83ad9559033e6e941db7d7c495acdce616347d28e90c7ce47cbfcfcad3bc560001b816000815181106107e8576107e8610d71565b602090810291909101015261080c600080516020610fe28339815191526000610b55565b8160018151811061081f5761081f610d71565b6020908102919091010152610845694b80742de2bf82acb36360b01b606086901b610ba8565b8160028151811061085857610858610d71565b602090810291909101015261087d694b80742de2bf82acb36360b01b3060601b610ba8565b8160038151811061089057610890610d71565b602090810291909101015260408051600480825260a08201909252600091816020015b60608152602001906001900390816108b357905050905083816000815181106108de576108de610d71565b6020026020010181905250846040516020016108fa9190610d87565b6040516020818303038152906040528160018151811061091c5761091c610d71565b6020026020010181905250627f3f7f60001b60405160200161094091815260200190565b6040516020818303038152906040528160028151811061096257610962610d71565b6020026020010181905250604051806020016040528060008152508160038151811061099057610990610d71565b6020908102919091010152604051639790242160e01b81526001600160a01b038716906397902421906109c99085908590600401610e10565b600060405180830381600087803b1580156109e357600080fd5b505af11580156109f7573d6000803e3d6000fd5b5050336000818152600260209081526040808320805460018101825590845291832090910180546001600160a01b0319166001600160a01b038d1690811790915590519094509192507f6a54f6a701fd47eec3e138a347ff57334768c4bb6b4297bd943a56229784840391a3505050505050565b6001600160a01b038116600090815260026020908152604091829020805483518184028101840190945280845260609392830182828015610ad557602002820191906000526020600020905b81546001600160a01b03168152600190910190602001808311610ab7575b50505050509050919050565b6001600160a01b038116600090815260016020908152604091829020805483518184028101840190945280845260609392830182828015610ad5576020028201919060005260206000209081546001600160a01b03168152600190910190602001808311610ab75750505050509050919050565b604080516fffffffffffffffffffffffffffffffff198085166020830152608084901b1660308201526000918291015b604051602081830303815290604052905080610ba090610fba565b949350505050565b604080516001600160b01b0319841660208201526000602a82018190526bffffffffffffffffffffffff198416602c83015291829101610b85565b600060208284031215610bf557600080fd5b5035919050565b6001600160a01b0381168114610c1157600080fd5b50565b600060208284031215610c2657600080fd5b8135610c3181610bfc565b9392505050565b634e487b7160e01b600052604160045260246000fd5b600080600060608486031215610c6357600080fd5b8335610c6e81610bfc565b92506020840135610c7e81610bfc565b9150604084013567ffffffffffffffff80821115610c9b57600080fd5b818601915086601f830112610caf57600080fd5b813581811115610cc157610cc1610c38565b604051601f8201601f19908116603f01168101908382118183101715610ce957610ce9610c38565b81604052828152896020848701011115610d0257600080fd5b8260208601602083013760006020848301015280955050505050509250925092565b6020808252825182820181905260009190848201906040850190845b81811015610d655783516001600160a01b031683529284019291840191600101610d40565b50909695505050505050565b634e487b7160e01b600052603260045260246000fd5b60609190911b6bffffffffffffffffffffffff1916815260140190565b60005b83811015610dbf578181015183820152602001610da7565b50506000910152565b60008251610dda818460208701610da4565b9190910192915050565b60008151808452610dfc816020860160208601610da4565b601f01601f19169290920160200192915050565b604080825283519082018190526000906020906060840190828701845b82811015610e4957815184529284019290840190600101610e2d565b50505083810382850152845180825282820190600581901b8301840187850160005b83811015610e9957601f19868403018552610e87838351610de4565b94870194925090860190600101610e6b565b50909998505050505050505050565b6080808252855182820152602086015160a083015260408601516001600160a01b0390811660c0840152606087015160e084019290925260009190610ef1610100850183610de4565b915083820360208501528651825280602088015116602083015250604086015160a06040830152610f2560a0830182610de4565b905060608701511515606083015260808701518282036080840152610f4a8282610de4565b92505050610f6360408401866001600160a01b03169052565b8281036060840152610f758185610de4565b979650505050505050565b60008060408385031215610f9357600080fd5b8251610f9e81610bfc565b6020840151909250610faf81610bfc565b809150509250929050565b80516020808301519190811015610fdb576000198160200360031b1b821691505b5091905056fedf30dba06db6a30e65354d9a64c609861f089545ca58c6b4dbe31a5f338cb0e3a2646970667358221220bfc3c1d06465cb38ff623d27c70739273b500d4d44e41583007db7e6278d709964736f6c63430008160033",
  "linkReferences": {},
  "deployedLinkReferences": {}
}